:030000000208EA09
:0C08EA00787FE4F6D8FD75810A02080052
:10083D0057656C436F6D6520656D626564646564B5
:10084D00004C434420494E544552464143494E477E
:10085D000077656C6C20636F6D6500444556494C9F
:02086D00200069
:08086F00C2B1D2B27F037E008A
:10087700EF1FAA0670011E4A6013E4FCFDC3ED9446
:0D088700E9EC940450EA0DBD00010C80F076
:010894002241
:0A08F6008FA0C2B012086FC2B22238
:0A0900008FA0D2B012086FC2B2221D
:1008B8007F381208F67F061208F67F0C1208F67FBA
:0908C800011208F67F800208F617
:100895008B088A09890AAB08AA09A90A1208D1FF97
:1008A50060101209007401250AF50AE43509F509F5
:0308B50080E422BA
:100800001208B87F801208F67BFF7A08793D12083B
:10081000957FC01208F67BFF7A08794E1208957F03
:10082000941208F67BFF7A08795E1208957FD4123D
:0D08300008F67BFF7A08796812089580C3EE
:1008D100BB010689828A83E0225002E722BBFE0225
:0908E100E32289828A83E4932258
:00000001FF
